:020000040800F2
:10000000400800207D0200089D4A00089D45000828
:1000100000000000000000000000000000000000E0
:10002000000000000000000000000000A34A0008DB
:100030000000000000000000A14A0008F54A000886
:100040008F0200088F0200088F0200088F0200084C
:100050008F0200088F0200088F0200088F0200083C
:100060008F020008252100088F0200088F02000877
:100070008F0200088F0200088F0200088F0200081C
:100080008F0200088F0200088F02000800000000A5
:100090008F0200088F0200088F0200088F020008FC
:1000A0008F0200088F0200088F0200088F020008EC
:1000B0008F0200088F0200088F0200088F020008DC
:1000C00000F002F800F0CBF812A030C8083824186D
:1000D0002D18AC4201D100F0C2F80FCCA246AB46BD
:1000E0000CA730CF2D1B083F3F197C427F1E544484
:1000F0002D090426F441641EAC4201D300F0AFF890
:100100000126334200D0FB1A3343984754465D46DC
:10011000DFE70000DC5E0000FC5E0000103A02D366
:1001200078C878C1FAD8520701D330C830C101D598
:1001300004680C6070470000704700000023002432
:1001400000250026103A01D378C1FBD8520700D30E
:1001500030C100D50B60704710B56E2902D100F098
:10016000CDFB10BD702902D100F009FD10BD66293C
:1001700002D105F06FFE10BD652902D105F06AFEBF
:1001800010BD672902D105F065FE10BD612902D1BD
:1001900005F068FE10BD03681B0A01D380231943D4
:1001A000692902D100F074FB10BD642902D100F06E
:1001B0006FFB10BD752902D100F06AFB10BD6F29DD
:1001C00002D100F087FC10BD782902D100F0C4FCF8
:1001D00010BDE92902D100F023FC10BDE42902D1B1
:1001E00000F01EFC10BDF52902D100F019FC10BD75
:1001F000EF2902D100F07AFC10BDF82902D100F0FD
:10020000B9FC10BD0368DB0901D3802319436329BE
:1002100002D101F09CF910BD732902D101F09FF9C0
:1002200010BDE32902D101F0A9F910BDF32902D1D3
:1002300001F0ACF910BD002010BD1FB501F058FA57
:1002400004000020002105F085FC401C60600020B7
:10025000002105F069FCE0601FBD10B510BD01F084
:100260001FFA1146FFF7E9FF05F016FA01F0B4FD99
:1002700003B4FFF7F2FF03BC01F050FE07488047CC
:1002800007480047FEE7FEE7FEE7FEE7FEE7FEE77A
:1002900004480549054A064B70470000A14B000879
:1002A000C100000840020020400800204004002057
:1002B00040040020FEB5044610460D46184373D096
:1002C000A6468C460020A41A01469D4167D3664687
:1002D000002701243D46B61A9D4102D313463A46F3
:1002E0002124654676462F04360C3E432D0CB61A63
:1002F0009D4104D3150C1B042B4312041034654696
:1003000076462F06360A3E432D0AB61A9D4104D37F
:10031000150E1B022B4312020834654676462F0742
:1003200036093E432D09B61A9D4104D3150F1B0112
:100330002B431201241D65467646AF07B6083E439F
:10034000AD08B61A9D4104D3950F9B002B43920034
:10035000A41C65467646EF0776083E436D08B61A3C
:100360009D411AD392185B41641C16E00018764632
:1003700065464941B71A9D410191009009D36046F5
:10038000B11A98418E468446009801990025401C78
:100390006941DD0752082A435B08641EE6D57246B0
:1003A000634603B0F0BDFFE72046284307D0002096
:1003B000C0430146C046C04622462B46F1E7002016
:1003C0000146F7E70FB41CB50C0007AA009007D050
:1003D0004142A14202D30019401E01E00020C04367
:1003E000074B7B4469460190069800F0A0FA002173
:1003F000002C01D0009A11701CBC08BC04B0184736
:100400006F05000001E004C0091F0429FBD28B071F
:1004100001D50280801CC90700D0027070470029F6
:100420000BD0C30702D00270401C491E022904D31E
:10043000830702D50280801C891EE3E70022EEE7D5
:100440000022DFE7002203098B422CD3030A8B42F0
:1004500011D300239C464EE003460B433CD40022BC
:1004600043088B4231D303098B421CD3030A8B42CE
:1004700001D394463FE0C3098B4201D3CB01C01A9C
:10048000524183098B4201D38B01C01A5241430967
:100490008B4201D34B01C01A524103098B4201D355
:1004A0000B01C01A5241C3088B4201D3CB00C01AC2
:1004B000524183088B4201D38B00C01A524143083A
:1004C0008B4201D34B00C01A5241411A00D201465F
:1004D0005241104670475DE0CA0F00D049420310F8
:1004E00000D3404253409C46002203098B422DD347
:1004F000030A8B4212D38901FC2212BA030A8B42EF
:100500000CD3890192118B4208D3890192118B423D
:1005100004D389013AD0921100E08909C3098B42C2
:1005200001D3CB01C01A524183098B4201D38B0105
:10053000C01A524143098B4201D34B01C01A5241A8
:1005400003098B4201D30B01C01A5241C3088B42ED
:1005500001D3CB00C01A524183088B4201D38B00D8
:10056000C01A5241D9D243088B4201D34B00C01A62
:100570005241411A00D201465241104663465B1077
:1005800001D34042002B00D54942704763465B10BF
:1005900000D3404201B50549002802DC491C08404F
:1005A00000E00846C046C04602BD00BFFFFFFF7F17
:1005B00070477047704700000121C90501234118A9
:1005C00042001B06D3185B0E0AD0C1100722D206C8
:1005D000891840075242D14201D55200891870470C
:1005E000090208D50146002A03D0C10FC90700201F
:1005F000704710467047420202D0002002497047FF
:10060000072109050143F4E70000F87FF0B5FF2555
:100610002D04C609C209FF2704462E400137CB0925
:100620003E4348402A402B400746002A6BD0002B0F
:1006300069D0AA4267D0AB4265D0002800DA3246C2
:100640000125ED0529432C4309022002090AD21A8B
:100650004B0C7F24E31A434C000A7C44E35C7D246A
:100660002404121914145B00A218884201D3521CEE
:1006700000E0400049420C465C4324115C43DB012E
:100680006415E318040A5C43C502200D0C4644437C
:100690006419250A5D432303EC0C0D4665430003F2
:1006A0000019EB184C42A34201D35B18401CD4053F
:1006B0002018002B07D05B00C91804D3401C002968
:1006C00001D1400840003F2189048A4209D3002A11
:1006D00008DC1106090F04D0032149074018C00F98
:1006E000C007F0BD01224100120689187F22520680
:1006F0009142F6D205214907C84201D59010F0BDBC
:10070000FF20C005F0BD002F00DA32461648AA428D
:1007100007D2AB4205D21902090E17D0F80FC00755
:10072000F0BDFF2563002D06AB42F9D84900A94270
:10073000F6D8AB4201D1A942F2D0A94201D10021A1
:1007400001E061004908D0050843F0BD1102090E1F
:10075000FBD0FF200243D005F0BD0A4601461046FB
:1007600054E70000165800000000C07F1F22030C51
:1007700002D10F2200041CD0030E01D10002083A5E
:10078000030F01D10001121F830F01D18000921EBF
:10079000002801DB4000521ED205511802125118E8
:1007A0001922904004D3491C002801D1490849006E
:1007B00008467047C10FC90700D040420122920786
:1007C0001143D3E701218907D0E770B50446856955
:1007D0000068C10601D5302600E02026C00707D0FA
:1007E00070BD62683046A1689047206A401C206254
:1007F0006D1EF6D570BD70B5044685690078C007DA
:1008000007D170BD6268A16820209047206A401C13
:1008100020626D1EF6D570BD09684A0501D540B24B
:100820007047C905FCD500B2704709684A0501D573
:10083000C0B27047C905FCD580B2704770B50C4690
:100840000546012A05D02878800600D5EA690023EC
:1008500002E0012305E05B1C934202D2E05C002829
:10086000F9D1A869E618C01AA861286AC0182862D8
:100870002846FFF7AAFF04E06A682078A968641C8C
:100880009047B442F8D32846FFF7B5FF70BD00008B
:10089000F7B5002575291068009914A611D0FFF747
:1008A000BBFF002802DA404211A608E0009909685F
:1008B0008A0701D50FA602E0490704D50EA6012537
:1008C00001E0FFF7B2FF009F0024243704E000F0AE
:1008D00082FE30313955641C0028F8D12B4632464F
:1008E0002146009800F059FAFEBD0000000000000B
:1008F0002D0000002B00000020000000116802689D
:10090000006A530501D5087009E0D30501D50880B8
:1009100005E0130602D5C21705C100E008600120FA
:100920007047000001694A1C02610878704700B5F1
:100930008FB00291002105910549019379440391FB
:1009400011460490684600F027F90FB000BD000082
:10095000E5FFFFFF0CC908399A4202D2531C0B6015
:1009600010707047F7B50446154686B02B4878449A
:10097000002703C83E460090019111E007986A469F
:100980007100415A02A800F005FE411C07D02178F1
:10099000890603D5E269391891420ED83F18761CB2
:1009A0002078800602D5E069B84206DDAE42E5DB7C
:1009B00007987100405A0028E0D1A069C01BA061CF
:1009C0002046FFF702FF154878445A3803C80090C4
:1009D0000020019116E041006A460798415A02A89A
:1009E00000F0D8FD0590401C0AD0002505E06268A3
:1009F00002A8A168405D90476D1C05988542F6D31A
:100A00000498401CB0420490E5DB206AC0192062C3
:100A10002046FFF7F0FE09B0F0BD0000425500008F
:100A2000F7B5D21D0025D20815A6D200F52905CAB2
:100A300011D0002A05DA00214042914111A60A4650
:100A400008E0009909688B0701D50FA602E0490765
:100A500001D50EA601251146009F0024243704E08D
:100A600000F05EF930323A55641C02460A43F7D171
:100A70002B4632462146009800F08FF9FEBD00005B
:100A8000000000002D0000002B00000020000000EE
:100A900070B504460021243408E05507D2086D0FD4
:100AA000303565545D072A43DB08491C15461D4354
:100AB000F3D10468002310A2250708D520252C4077
:100AC0000C4304D0C46901230CA2641EC46100F06D
:100AD00064F970BD10B5044621461068FFF7A5FE05
:100AE000002302462046FFF7D3FF10BDD21DD108D8
:100AF000C9000CC9CCE70000000000003000000075
:100B0000F8B50F460188090502D5224C7C4402E065
:100B1000204C7C440E3405460021243508E016079D
:100B20001209360FA65D6E541E0732431B09491C7D
:100B300016461E43F3D1224604780023240705D528
:100B4000702F06D0002901D00223113200F025F9C0
:100B5000F8BD01231032F9E770B504460D46214671
:100B60001068FFF762FE0023024629462046FFF781
:100B7000C7FF70BDD21DD308DB000CCBC0E730B47B
:100B8000036820241268234303600823C36130BC38
:100B90000023B5E7AC530000F3B50446002081B054
:100BA00020622046E1688847002872D0252802D0BC
:100BB0006268A168ABE0594F00267F442046E16897
:100BC00088472028054608DB312D06D278192038C1
:100BD0000078002801D00643F0E7B00701D50420D3
:100BE00086430020E0610746A0612A2D0AD02846EE
:100BF00004F092FF002827D0B8000019303D009083
:100C0000856119E00298BA00121902C89161029038
:100C10002046E1688847012F054617D1E069002882
:100C20001FDA202086431CE000980A21806948438F
:100C300000994019303888612046E16888470546A8
:100C400004F06AFF0028EFD1012F0AD02E2D08D121
:100C50002046E16888470546202006437F1C022F76
:100C6000C3DBA069002803DA4042A06101200643EB
:100C7000F00701D0102086436C2D0BD0682D09D0D1
:100C80004C2D3CD06A2D38D0742D38D07A2D36D0EA
:100C900016E040E0E1682F4620468847B842054606
:100CA00009D16C2F29D001208002E168064320463B
:100CB0008847054604E06C2F1DD0FF200130064315
:100CC000002D28D028464138192803D80120C00219
:100CD00006432035204626602946029A1646FFF72D
:100CE0003BFA002810D001280BD0F61DF008C000F8
:100CF0000830029055E74020E1E78020D5E700204A
:100D0000D3E7361D02964CE762682846A1689047F3
:100D1000206A401C44E7206AFEBD00002653000004
:100D20000B4670B5024689078008084319469D089E
:100D3000141AA94125090807054308092C19484137
:100D4000250A01060D43010A2C194141200C0D040E
:100D500028430D0C00194D41002140194D41C00898
:100D600069070843E908840F8D002543840024188F
:100D70004D4124196D41121BAB4107E00925ED439C
:100D80002C11521963410024401C61411C460A2564
:100D90000026551BB441F1D270BDFFB504460D4687
:100DA00081B0243000902168880604D51022E069C3
:100DB0009143216000E00120A84201DD471B00E0D3
:100DC00000270498A1697A191018081AA0612078E0
:100DD000C00602D42046FFF7F8FC002608E003987E
:100DE0006268A168805D9047206A401C761C206282
:100DF00004988642F3DB2078C0060AD52046FFF728
:100E0000E4FC06E06268A16830209047206A401C3C
:100E1000206238467F1E0028F4DC07E000986268F4
:100E2000A168405D9047206A401C206228466D1EE4
:100E30000028F3DC2046FFF7DEFC2078000602D510
:100E4000022005B0F0BD0120FBE70000FFB50C4615
:100E50001E468FB003CA089009914F007D0D00D146
:100E60006D1E002108460020C0460321099A89050D
:100E70000840002A03DA8200801840080840800DEC
:100E800001280A9002DD0020C0430A900898074319
:100E90000DD0F048F0492818484307141898002846
:100EA0001DD07542291E1DDD0A9842421BE018988C
:100EB000012802D00020302104E00020F24305E0A8
:100EC0002154401CB042FBDB30460022189B00211D
:100ED00021540F998B600A60486013B0F0BDBD1BB0
:100EE0006D1CDFE70A9A002900DA69420BA800F0BE
:100EF00047FC0BAB07CB03AB07C30899099800F07D
:100F0000ABFC6B4607C30146D4480918002D00917D
:100F10000BDDD24903980A9A49424018002303A9DD
:100F20000390684600F008FF08E003990A9A00233E
:100F3000081803A90390684600F0A8FE6B4607C393
:100F40000004000C03D00020C043410800E010461C
:100F5000189A002A03D00022009215461EE0751E42
:100F600005D4FFF7DDFE303262556D1EF9D5012242
:100F70000843079602D000227F1C04E02078302826
:100F800001D100227F1E002A069787D01EE0112D76
:100F900007DAFFF7C5FE303262556D1C02460A4380
:100FA000F5D1084303D00098002819D00EE00021A5
:100FB000681E05E0235C625C63542254401E491C99
:100FC0008142F7DBA81B401E07950690079A1899E7
:100FD0000020A0540F98079B069A81600CC07CE704
:100FE00011260020189059E7D21DF0B50D46044691
:100FF000D10893B0C90003C90C900D9104F060FDB5
:1010000002460D98C00F01D02D2007E0206881070F
:1010100001D52B2002E04007C00F4001032A0F90AA
:1010200001D0072A05DB03462946204600F064FB71
:101030000EE12078800601D5E76900E00627284602
:10104000652D04D0662814D0672D69D12DE00020CD
:10105000112F009001DB112300E07B1C0CAA03A9D7
:1010600010A8FFF7F3FE1199002610987D1C0E9131
:1010700042E001203B460CAAC0070B9001200090E3
:1010800003A910A8FFF7E2FE119D129810990026FF
:1010900000280E9501D1781C0D18781B02D4464209
:1010A0007D1C761EE81B00903AE0012F00DA012734
:1010B0000020112F009001DD112300E03B460CAA17
:1010C00003A910A8FFF7C2FE11993D46109800260B
:1010D0000E91217809070BD40E99A94200DA0D462A
:1010E00003A9012D04DD4A19203AD27F302A06D007
:1010F000B84201DA011D04DA012100910FE06D1EF2
:10110000EFE7002802DC86192D1A03E0411CA942F2
:1011100000DD0D46801B401C00900120C0070B9095
:101120002078000705D40098A84202DB0020C043C5
:10113000009069460020C8720B98012102AF033766
:10114000C907884225D0022010902B2011900B98BF
:1011500000280BDA40420B902D20119006E00B98EE
:1011600000F039FA30317F1E0B9039701099481E0B
:1011700000291090F3DC0B980028F0D111987F1E05
:1011800038702088000501D5452000E065207F1ECD
:10119000387001A8C01BC01D0B900F98002800D00C
:1011A000012041190098C01709180B980818A16967
:1011B000081A401EA0612078C00602D42046FFF71E
:1011C00004FB0F98002805D06268A1689047206A48
:1011D000401C20622078C00625D52046FFF7F5FA8E
:1011E00021E0002E07DB0E98B04204DD03A8626800
:1011F000805DA16802E06268A16830209047206AA3
:10120000761C401C20620098401E002800900AD1E5
:1012100000F06EFAC06862680168405CA16890479F
:10122000206A401C206228466D1E0028D9DC07E099
:1012300062683878A1687F1C9047206A401C206251
:101240000B99481E00290B90F2DC2046FFF7D3FAD9
:10125000032042E601FCFFFF104D0000E1DFFFFF2D
:10126000D21DF0B504460D46D0088DB0C0004668CA
:1012700007683146384604F023FC0246F00F01D0DF
:101280002D2307E02068810701D52B2302E04007CA
:10129000C00F43016846002B037001D0012000E01D
:1012A0000020032A0A9001D0072A04DB29462046A1
:1012B00000F022FA2DE12078800601D40D2500E00F
:1012C000E5697000400D0D2D01904BDA300D0021C5
:1012D0000B9008460020C046032189050840002ED7
:1012E00005DA82008018C20F1018401008408015DF
:1012F000012801DD0020C043A9000023182906D3DE
:101300009C460A460123183A1B07D34003E00122FA
:101310001205CA4094460C31202902D33A4620399E
:1013200000E032468A40002802DD002A06D119E09A
:10133000002817D10121C9078A4213D319466346F1
:101340007F185E41002806D10120C007824202D1E9
:10135000084687439E430B98310D814202D0019885
:10136000401C01902088000502D57149794402E0B3
:101370006F49794419396B460A9830221A540A98F1
:101380000A7C401C1A54401C0A900198002801DC79
:10139000302000E031201872019A0120002A02D08A
:1013A000644BD21804E072003A4302D0614A521CE6
:1013B0000192002D02DC2278120703D56A462E2006
:1013C000507202200022864694460CE03203360119
:1013D000120F6D1E8B5C02AA13546246521C401CF5
:1013E0009446052A01DA002DF0DC002202AE08E066
:1013F0003B0F3F01CB5C521C6D1E3354401C082A2E
:1014000001DA002DF4DC23689A0601D511E0401EB4
:10141000704504DD3218203AD27F302AF7D00028F8
:1014200007DD3218203AD27F2E2A02D11A0700D4C3
:10143000401E002D03DD3E223254401C6D1E497CAF
:1014400031540199401C002906DA2D21471C3154E2
:1014500001984042019003E02B21471C3154019830
:101460007D21C900884206DBFEF7F6FF3030F055DB
:101470007F1C019101E0642808DB01986421FEF7DC
:10148000EBFF3030F0557F1C019101E00A2806DBAC
:1014900001980A21FEF7E0FF3030F0557F1C0198DB
:1014A0000A21FEF7D9FF3031F1550A98A1697F1C56
:1014B0007A191018081AA0612078C00602D42046B4
:1014C000FFF783F9216A6E460A980818206204E043
:1014D00062683078A168761C90470A98401E0A908E
:1014E000401CF5D12078C00602D52046FFF76DF9E3
:1014F00002AE09E03078761C3E280DD06268A16803
:101500009047206A401C20627F1EF3D22046FFF7DE
:1015100072F90DB00320F0BD206A4019206203E08B
:101520006268A168302090476D1EEDD3F8E7000097
:10153000984B000001FCFFFF10B54369002B02D05F
:10154000C046C04601E0FFF779F9012010BD1278CE
:10155000014624310A7000224A700122ECE711682A
:101560000022D243E8E710B54369002B02D0C04601
:10157000C04601E0FFF7F6F9012010BD12880146D0
:10158000243182840022C2840122ECE71168002207
:10159000D243E8E7F8B516460C46054600F0A0F839
:1015A0000368FF200230C05C012807D0FF2C0FD851
:1015B000185D00280CD001202C70F8BDFF33324696
:1015C000214608331868C71828460023B847F8BDD5
:1015D0000020C043F8BD01468008081A020910180F
:1015E000020A1018020C1018C008820012185200CB
:1015F000891A01E0401C0A390A29FBD27047000011
:10160000F8B5264C4E00069DA6420AD8A64201D146
:10161000002806D15E00A64203D8A6420AD1002ABD
:1016200008D00D242404254233D02946002000F0A0
:10163000DBFBF8BD0C461C4311D4994207D0C81AF5
:1016400002D3EFF30080F8BDEFF30080F8BD801AFD
:1016500002D3EFF30080F8BDEFF30080F8BD09245A
:101660002407E5008B4207D0581A02D3EFF300801D
:1016700006E0EFF3008007E0101A03D3EFF30080D9
:10168000A04303E0EFF30080A043284380F30088E9
:10169000F8BD009500F0C0FBF8BD00000000E0FFC1
:1016A000754600F0C3FBAE46050069465346C008C8
:1016B000C000854618B020B5FEF7EAFD60BCB6460E
:1016C00000260027C0C5C0C5C0C5C0C5C0C5C0C5AF
:1016D000C0C5C0C5403D490849008D46704700005F
:1016E00010B500F005F8001D10BD00BF69440000F2
:1016F0000048704730000020F8B51F46044601231B
:101700000068DB02032601461840072A05DB002893
:1017100001D017A506E017A504E0002801D016A502
:1017200000E016A5102081432160A069C01E002F93
:10173000A06101D0401EA0612046FFF746F8002FAF
:1017400009D038466268A1689047206A401C206230
:10175000C01C206206E0206AFAE762682878A16867
:101760006D1C9047761EF8D22046FFF744F8F8BD6E
:101770004E414E006E616E00494E4600696E660035
:10178000F7B516468AB0334878446C4603467C3336
:10179000C06F5A689B680DC42E487844763003ACFD
:1017A0000DC80DC43720C001081837211B30FEF7C3
:1017B00053FE05460C46803D1B3C02D56442012089
:1017C00000E000200027099010E0E0070CD00C207A
:1017D00020497843794432464C3941186846012300
:1017E00000F054FA6B4607C364107F1C002CECD148
:1017F000184F7F442E3F16E0E80712D02001C01991
:101800000EC80691089307920068F04201D198191A
:1018100008903246012306A903A800F037FA03AB6B
:1018200007C36D10641C002DE6D10998002806D06E
:1018300032466946012303A800F07EFA05E0012341
:101840003246694603A800F021FA0A9B07C30DB08F
:10185000F0BD000090470000034640000A4610B566
:10186000400D0BD00121C9070F24A40200191C034D
:1018700064082143540D2143D20207E000210120D6
:10188000F2E7D40F490021435200401E0029F8DA44
:10189000DB0FDB07184310BDFFB50D46144685B0BE
:1018A0004868516804F0F4F800910190A868A168B4
:1018B00004F0EEF802910390A868616804F0E8F87B
:1018C000029A12188242029201D2012000E0002006
:1018D000019A0B18D2180028019202D08A4202D92C
:1018E00003E08A4201D2012000E00020009908189C
:1018F00000906868A16804F0CBF8029A121882423E
:10190000029201D2012000E00020019A0B18D218A7
:101910000028019202D08A4202D903E08A4201D211
:10192000012000E000200099081800902868216834
:1019300040004900400849084018FA49471814E097
:1019400001994000C90F0843009001980299400096
:10195000C90F08430190029803994000C90F08433A
:101960000290039840007F1E039000980028E7DA59
:101970000898002801D0EC4E00E00026B74201DABA
:10198000012000E00020002804902AD0F71BF80670
:10199000C00E15D0029B2021091A039A8B401A43CE
:1019A0000392029A019BC2408B401A430292019A11
:1019B000009BC2408B4000991A430192C1400091A4
:1019C0007B110DD06F460320C11A03D50021820080
:1019D000B95003E08A008100BA587A50401EF3D50E
:1019E000374603980299002800D001200143089847
:1019F0000291002808460CD0002800D0012001994F
:101A0000019A490508430121D20AC902D202019272
:101A100000E001210E9B0122D207012B02D0002BF6
:101A200003D013E0002807D120E0904204D8904270
:101A30000CD1019B0B4209D0019B5918019105D192
:101A40000099491C009101D17F1C009200280DD003
:101A5000102108460020C0460498002806D00F98A0
:101A6000002803D0082108460020C04628682168C5
:101A7000019B009A4840C10F0598C90739430EC021
:101A800009B0F0BDFFB587B0099A08980899536866
:101A900092684068896896460022039317469446E8
:101AA000089A12685300099A5B081268520052089B
:101AB0009A1A9E4BD4180A9A002A01D0352200E0C7
:101AC000402206920022012315460492DB0705936B
:101AD00024E0002D05D175460346039E4D1BB341FE
:101AE00009D375466646039B491B049D9841059B97
:101AF0007519AC465F4163463B4308D0059B049E85
:101B0000DD0776082E435B080496059301E0521E1C
:101B1000641EC50FED0749184041521C069B9A42AE
:101B2000D7DB002D04D17546039A6B1A824101D28E
:101B300003200CE0039A0B466B404240134303D052
:101B4000014303D0012002E0022000E000206146B2
:101B500001910021009702910A99002905D0614660
:101B600040020143704B019102E080070023029084
:101B70009C4201DA012000E0002007003AD01A1B45
:101B8000D006C00E15D0029D2021019C091AC54027
:101B90008C402543029C8C4000D001242543019CAD
:101BA0000295009DC4408D4000992C430194C14092
:101BB000009154111DD06D460221002202290CD142
:101BC0000320001B07E0002804DB8600AE59002E2E
:101BD00000D00122401C0328F5DB081B02D5880039
:101BE0002A5004E08000285810438A00A850491E5B
:101BF000E3D51C460A98002802980CD0002800D093
:101C000001200199019A490508430121D20AC9021C
:101C1000D202019200E00121109B0122D207012B88
:101C200002D0002B03D013E0002807D11FE0904220
:101C300004D890420CD1019B0B4209D0019B59184A
:101C4000019105D10099491C009101D1641C0092B9
:101C500000280CD0102108460020C046002F06D0D6
:101C60001198002803D0082108460020C046089893
:101C70000999019A009B006809684840C10F0798BC
:101C8000C907214382600AC00BB0F0BD00B585B022
:101C9000019300920A460146002302A8FFF7FCFDCB
:101CA00002A807C805B000BDFFB50A461F4685B0AB
:101CB0000799019301230091014602A8FFF7ECFD6B
:101CC00002990398049ECA0F4900D20700920F227E
:101CD000490892028C1A0021002800DB0C464500BE
:101CE00013486D08844214D3079A002A04DA441E6C
:101CF0000026104DF64302E004460D460E46102124
:101D000008460020C046002F03D0042108460020CA
:101D1000C0462005E90A0843009908436905F20A0C
:101D20001143ADE602C0FFFF013C0000FF3F000091
:101D3000FF070000FFFFFF7F00B585B00193009211
:101D40000A460146002302A8FFF79CFE02A807C826
:101D5000A8E7FFB50A461F4685B0079901930123FE
:101D60000091014602A8FFF78DFE02990398049E98
:101D7000CA0F4900D20700920F22490892028C1A1A
:101D80000021002800DB0C46450011486D08844204
:101D900014D3079A002A04DA441E00260D4DF64398
:101DA00002E004460D460E46102108460020C046BB
:101DB000002F03D0042108460020C0462005E90A70
:101DC0000843009908436905F20A114358E60000E8
:101DD000FF070000FFFFFF7F10B50446C046C04666
:101DE0002046FEF745FA10BDC80212D54803400F41
:101DF000002804D0C803C043012188407047EFF396
:101E000000800001000903210907084380F30088CE
:101E1000704700207047000010B500200249029A68
:101E200000F04CF810BD00000000F87F004870473B
:101E300010000020024670B50A4392072AD11E4DB9
:101E4000EE0104C808C9541B9443344017D0D0B2E3
:101E5000D9B2401A2106014310D190B299B2401A6A
:101E6000210401430AD110021902000A090A401A8A
:101E70002102014302D1100E190E401A70BD9A4280
:101E8000DFD010BA19BA884201D9012070BD0020F4
:101E9000C04370BD02780B78401C491C002A09D051
:101EA0009A4207D102780B78401C491C002A01D0C5
:101EB0009A42EFD0D01A70BD0101010110B50C4655
:101EC0001107090F092904D00A290AD008290CD1C1
:101ED00004E011460820FFF787FF06E0510606D50B
:101EE00001E0510601D50120C007214610BDD106F1
:101EF00007D501010909CC084907000E0006044373
:101F000009E0410F20024907000A0143200E0006A4
:101F10001D22D14101430846E7E70000014918208E
:101F2000ABBEFEE726000200704780B582B001908C
:101F30000198806A00900098406D5021084244D179
:101F4000FFE70099486D012252021043486500984E
:101F50000068C0680005800F002832D1FFE70098B4
:101F60002021405C00282CD1FFE700980068006821
:101F70000007002824D5FFE7009800688068042146
:101F80000840800800280FD1FFE7009801684868E2
:101F90000C22904348600098406D012108430902DB
:101FA0008843009948650AE00099486D2022104353
:101FB00048650099886D012210438865FFE7FFE7B7
:101FC000FFE7009800F030FA05E00098C06C416B24
:101FD00001988847FFE702B080BD80B582B00190CC
:101FE0000198806A00900099486D4022104348652E
:101FF0000099886D042210438865009800F022FA49
:1020000002B080BD80B582B001900198806A0090D6
:10201000009800F013FA02B080BD000080B584B0D3
:10202000039003980190094800680949FEF70AFAED
:10203000019948430290FFE70298002804D0FFE787
:102040000298401E0290F7E704B080BD0000002017
:1020500040420F0080B584B00290002001900299A8
:1020600009688968032211400129009005D1FFE722
:102070000298006800680090FFE70098C0070028F9
:1020800045D1FFE7029800688068254908420DD0D5
:10209000FFE70299486D102210434865029A916D3E
:1020A00001200143916503A9087034E00298026899
:1020B0009168012001439160FFF7B0FF00F06EFFCF
:1020C0000190FFE7029800680068C00700281DD152
:1020D000FFE700F063FF0199401A0B2815D3FFE7D3
:1020E000029800680068C00700280DD1FFE7029938
:1020F000486D102210434865029A916D01200143FA
:10210000916503A9087006E0FFE7DBE7FFE703A995
:1021100000200870FFE703A8007804B080BDC04627
:102120001700008080B5024800F0F8FB80BDC04673
:10213000E400002084B0039002910192009303997F
:102140004A6C1C20024001209040096C48600098B5
:1021500003990968486003988068102809D1FFE74F
:102160000198039909688860029803990968C86012
:1021700008E0029803990968886001980399096842
:10218000C860FFE704B0704781B0EFF3108072B60B
:102190000090FFE7FEE780B588B00690059104A99E
:1021A0000020087003900290FFE706985021405CE1
:1021B000012804D1FFE707A90220087082E00699F0
:1021C000502201208854FFE7FFE7069800688168E5
:1021D0000320014000200129019005D1FFE7069866
:1021E000006800680190FFE70198C007002856D1F9
:1021F000FFE70698406D022108430122110288433F
:102200000699486506980068C06803231840029044
:1022100006980168C8689843C8600698016888688D
:10222000D2071043886000F0B9FE0390FFE70698DC
:1022300000688068C00F012822D1FFE700F0AEFEE1
:102240000399401A0B281AD3FFE7069800688068A4
:10225000C00F012812D1FFE70698406D10210843F6
:102260000221884306994865FFE70699502200201D
:102270008854FFE707A90120087023E0FFE7D6E7AD
:10228000029A06980168C8681043C8600698406DB5
:1022900001210843022188430699486508E0069910
:1022A000486D20221043486504A901200870FFE70B
:1022B000FFE70699502200208854FFE7049807A9F9
:1022C0000870FFE707A8007808B080BD80B584B02B
:1022D00002900191FFE702985021405C012804D14F
:1022E000FFE703A90220087093E002995022012021
:1022F0008854FFE7FFE702980068806804210840DF
:10230000800800280FD0FFE70299486D2022104373
:102310004865FFE70299502200208854FFE703A98F
:102320000120087075E0019840683C49884234D02B
:10233000FFE7019802683B48024002980168886AFA
:102340001043886201988078400700280AD5FFE78B
:10235000E84908680122D205104308600A20FFF707
:102360005DFEFFE7019880788007002807D5FFE72A
:10237000E04908680122920510430860FFE70198D0
:102380008078C007002807D0FFE7DA4908680122F3
:10239000120610430860FFE731E001980068C2436D
:1023A0001F48024302980168886A104088620198B9
:1023B00080784007002807D5FFE7CE49086801224A
:1023C000D20590430860FFE70198807880070028D5
:1023D00007D5FFE7C74908680122920590430860C6
:1023E000FFE701988078C007002807D0FFE7C149C0
:1023F00008680122120690430860FFE7FFE7FFE745
:102400000299502200208854FFE703A90020087099
:10241000FFE703A8007804B080BDC04601100000AB
:102420000000F8FFFFFF070081B000900249012083
:10243000087001B07047C0467000002081B0009065
:1024400001B0704781B0009001B0704780B584B092
:1024500002900298002804D1FFE703A90120087028
:1024600043E10298406D00280AD1FFE7029900205D
:102470008865029950228854029800F03FF9FFE7DE
:102480000298406D10210840102809D0FFE70298FB
:102490000068806804210840800800280FD0FFE70A
:1024A0000299486D102210434865FFE702995022B7
:1024B00000208854FFE703A90120087015E1029865
:1024C000406D0221084301210902884302994865B1
:1024D00002980068816803200140002001290190D2
:1024E00005D1FFE70298006800680190FFE70198B6
:1024F000C007002845D1FFE7FFE7029840680321A5
:10250000890788420ED0FFE70298406801218907B9
:10251000884207D0FFE7029840680121C907884236
:102520000ED1FFE7029801680869032292079043E1
:10253000086102984268016808691043086112E066
:10254000029801680869032292079043086169496B
:1025500008680F2292049043086002984268086855
:1025600010430860FFE7FFE702980168C868182277
:102570009043C860029882680168C8681043C860C8
:10258000FFE75C4908680122520690430860029800
:10259000406B420608681043086002980068806833
:1025A000C000002808D4FFE702980168886801226B
:1025B000120710438860FFE702980168C8684E4A16
:1025C0001040C86002980090C2680169891E4B42A1
:1025D000594189000A432021415C49030A432C21C7
:1025E000415C49000A43016B0A43816989030A433C
:1025F000C169C9030A430168C8681043C8600298EA
:10260000406AFF21C231884209D0FFE70298426A3E
:10261000816A0A430168C8681043C860FFE70298EE
:102620002121405C01281AD1FFE702982021405C5B
:10263000002808D1FFE702980168C8680122120447
:102640001043C8600AE00299486D20221043486593
:102650000299886D012210438865FFE7FFE7029821
:10266000C06B012818D1FFE7029801680869FF22B2
:102670009200904308610298026C416C0A43816C9D
:102680000A430168086910430861029801680869F3
:102690000122104308610EE0029800680069C0073B
:1026A000002807D0FFE702980168086901229043DB
:1026B0000861FFE7FFE70298016848690722904335
:1026C00048610298826B0168486910434861029929
:1026D000002088650299496D01221143022291432D
:1026E000029A516503A90870FFE703A8007804B0B7
:1026F00080BDC046082701401902FEFF80B58EB09C
:102700000D9000200C900B900A90099008900D9865
:102710000068384988426BD1FFE7374908680122D1
:10272000520210430860FFE73448026804210A435C
:1027300002600068084007900798FFE7FFE72F480E
:10274000026801210A43026000680840069006986A
:10275000FFE7FFE72948026802210A430260006898
:10276000084005900598FFE7032000900890099025
:10277000002003900A90224808A9019100F070FA05
:10278000009A019903981323089309920A9005204F
:10279000000700F065FA009A01990398012302935B
:1027A000089309920A90174800F05AFA029A03997E
:1027B00015480490154B036041608160C16080231F
:1027C000036113024361920282612022C2610162AD
:1027D00000F052F9002803D0FFE7FFF7D5FCFFE730
:1027E000FFE70D980849C1640D988862FFE7FFE78D
:1027F0000EB080BD00240140341002402C10024075
:102800000008005000040050E400002008000240CE
:1028100080B586B004900391029201A9002008704F
:10282000049800688068042108408008002861D16D
:10283000FFE7FFE704985021405C012804D1FFE73F
:1028400005A9022008705DE00499502201208854F7
:10285000FFE7FFE704980168C86801221043C860D9
:102860000498C069012806D0FFE70498FFF7F2FB3F
:1028700001A90870FFE701A80078002839D1FFE717
:102880000498406D01210902084320490840049939
:102890004865049900208865FFE7049950220020CC
:1028A0008854FFE70498C16C1948C8620498C16C49
:1028B000184808630498C16C174848630498016875
:1028C0001C20086004980168486810221043486082
:1028D0000499C86C09684031039A029B00F03AF9E8
:1028E00001A9087004980168886804221043886070
:1028F000FFE703E001A902200870FFE7019805A99E
:102900000870FFE705A8007806B080BDFEF1FFFF64
:102910002B1F000805200008DB1F000880B584B0CD
:1029200003900398006C00680290039800680068A8
:10293000019002980399496C1C221140C84040073D
:10294000002826D5FFE701A800784007002820D5F9
:10295000FFE70398006800688006002807D4FFE7B7
:10296000039801680868042290430860FFE7039910
:102970004A6C1C20024004209040096C4860039877
:10298000006B002804D0FFE70398016B8847FFE73E
:1029900070E002980399496C1C221140C8408007DE
:1029A000002830D5FFE701A80078800700282AD545
:1029B000FFE7039800680068800600280BD4FFE753
:1029C0000398016808680A22904308600399252249
:1029D00001208854FFE703994A6C1C200240022022
:1029E0009040096C4860FFE7039924220020885436
:1029F000FFE70398C06A002804D0FFE70398C16A84
:102A00008847FFE735E002980399496C1C22114082
:102A1000C840000700282AD5FFE701A80078000772
:102A2000002824D5FFE70398016808680E22904328
:102A30000860039A536C1C20034001200146994012
:102A4000126C51600399C863039925228854FFE7EB
:102A50000399242200208854FFE70398406B002844
:102A600004D0FFE70398416B8847FFE700E0FFE7EA
:102A7000FFE7FFE704B080BD80B584B00290029804
:102A8000002804D1FFE703A90120087055E002984F
:102A9000009000682B4940181421FDF7D3FC0099E1
:102AA000800048640299284808640299252202207F
:102AB00088540298006800680190019823490840F2
:102AC000019002988168C26811430269114342690A
:102AD000114382691143C2691143006A014301989D
:102AE000084301900198029909680860029880687B
:102AF00001218903884213D0FFE70298406C1C2310
:102B000018400F22824012490868904308600298DA
:102B10004268406C18408240086810430860FFE734
:102B200002990020C863029A25230121D1540299F9
:102B30002422885403A90870FFE703A8007804B092
:102B400080BDC046F8FFFDBF000002400F80FFFFC0
:102B5000A800024080B586B00490039102920193D0
:102B6000694600200870FFE704982421405C012892
:102B700004D1FFE705A9022008704CE00499242243
:102B800001208854FFE7FFE704982521405C0128D5
:102B900033D1FFE7049925220220885404990020AC
:102BA000C86304980168086801229043086004988B
:102BB0000399029A019BFFF7BDFA0498006B002865
:102BC00007D0FFE70498016808680E2210430860E8
:102BD0000CE0049801680868042290430860049897
:102BE000016808680A2210430860FFE7049801683A
:102BF000086801221043086009E0FFE704992422D5
:102C000000208854FFE7694602200870FFE700981B
:102C100005A90870FFE705A8007806B080BD000090
:102C200080B584B0039000F0B9F902900398019048
:102C30000198401C002806D0FFE7DE480178019883
:102C400040180190FFE7FFE700F0A8F90299401A49
:102C50000199884201D2FFE7F6E704B080BDC04683
:102C60008CB00B900A910020099008900790FFE724
:102C70000A9800680999C840002800D162E10A98C2
:102C80000068099A0121914008400890089800289E
:102C900000D153E10A98406803210840012807D079
:102CA000FFE70A9840680321084002282CD1FFE77B
:102CB0000B9880680790099840000321814007988D
:102CC000884307900A98C168099840008140079896
:102CD0000843079007980B9988600B984068079005
:102CE0000998012181400798884307900A98406815
:102CF000102108400109099881400798084307906E
:102D000007980B994860FFE70A984068032108403C
:102D1000032816D0FFE70B98C06807900998400079
:102D2000032181400798884307900A988168099891
:102D30004000814007980843079007980B99C860A6
:102D4000FFE70A98406803210840022820D1FFE7E6
:102D50000B980999C90889004018006A07900998DA
:102D60004007C00E0F2181400798884307900A98BA
:102D7000016909984007C00E8140079808430790F1
:102D800007980B99099AD208920089180862FFE700
:102D90000B980068079009984100032002468A407A
:102DA0000799914307910A994968014009984000A1
:102DB000814007980843079007980B9908600A9884
:102DC00080798007002800D1B7E0AD49086801226A
:102DD000104308600998032188435B4940580790D5
:102DE00009988007000F0F218140079888430790BA
:102DF0000B9805210907884203D1FFE700200690C0
:102E000038E00B985149884203D1FFE70120059033
:102E10002DE00B984E49884203D1FFE70220049031
:102E200022E00B984B49884203D1FFE7032003902F
:102E300017E00B984849884203D1FFE7042002902D
:102E40000CE00B99454A052006230093914201901E
:102E500001D00098019001980290FFE7029803903A
:102E6000FFE703980490FFE704980590FFE70598B3
:102E70000690FFE7069909988007000F81400798A0
:102E80000843079007980999032291432E4A8850D6
:102E900033480068079008990798884307900A9874
:102EA0008079C006002805D5FFE7089907980843F0
:102EB0000790FFE707982A4908602A4800680790AA
:102EC00008990798884307900A9880798006002817
:102ED00005D5FFE70899079808430790FFE707988B
:102EE000204908602048006807900899079888439F
:102EF00007900A9880798007002805D5FFE7089990
:102F0000079808430790FFE7079817490860174894
:102F10000068079008990798884307900A98807975
:102F2000C007002805D0FFE70899079808430790D5
:102F3000FFE707980D490860FFE7FFE70998401C85
:102F4000099095E60CB0704708000140000400505D
:102F500000080050000C005000100050001C0050F1
:102F6000080401400C040140040401400004014035
:102F700083B0029001A801806846027000780028A2
:102F800005D0FFE701A800880299886104E001A844
:102F9000008802998862FFE703B07047064800681E
:102FA0007047C0462E4802780349086880180860B8
:102FB0007047C046040000202402002080B582B083
:102FC00001A9002008700B490868402210430860DE
:102FD000032000F011F8002804D0FFE701A9012028
:102FE000087002E000F040F8FFE701A8007802B0A6
:102FF00080BDC0460020024080B584B002901748D2
:1030000000680190164801787D20C000FDF71AFA8B
:1030100001460198FDF716FA01F06CF8002804D07B
:10302000FFE703A90120087014E00298032809D8DB
:10303000FFE702990022D04300F02FF802980949D7
:10304000086003E003A90120087003E003A9002041
:103050000870FFE703A8007804B080BD00000020DE
:1030600004000020080000200549086801221043E0
:103070000860E64908681207104308607047C046B8
:103080003410024080B582B0014601A801700021D1
:10309000405602F0A9FA02B080BD80B584B0034664
:1030A00003A803700291019200214056029902F098
:1030B000B1FA04B080BD000080B586B0049001A9CB
:1030C000002008700498006820210840202806D0BD
:1030D000FFE7049840780007002800D41FE1049817
:1030E00000788006002801D5FFE7FFE704984078C4
:1030F0000007002801D5FFE7FFE7C4480068C000CB
:10310000002809D4FFE7C14A1168012003071943C9
:10311000116001A90870FFE7BD480068C0050028DC
:103120001DD4FFE7BA490868012212021043086063
:10313000FFF734FF0390FFE7B5480068C00500289B
:103140000CD4FFE7FFF72AFF0399401A652804D340
:10315000FFE705A90320087053E1EDE7FFE7AD485D
:10316000006803210A0510400290029804994968FA
:103170001140884209D1FFE7029804998968032227
:1031800012051140884214D0FFE7049840680321DB
:103190000904084088420BD1FFE79E48006880037D
:1031A000002804D5FFE705A90120087029E1FFE701
:1031B000FFE799480068032109040840029002983B
:1031C000002851D0FFE702980499496803221204AD
:1031D0001140884207D0FFE704980068202108408A
:1031E00020280FD0FFE7029804998968032212046F
:1031F0001140884238D0FFE7049840780007002843
:1032000032D5FFE7844908680322120490430290F4
:1032100008680122D20410430860086890430860DF
:103220000298086002A84078C00700281BD0FFE77A
:10323000FFF7B4FE0390FFE77748006801214902D9
:103240000840400A00280DD1FFE7FFF7A7FE0399C9
:10325000401A7349884204D3FFE705A90320087088
:10326000CFE0E9E7FFE7FFE7049840780007002890
:1032700021D5FFE7FFE7FFE70498806803210904F1
:10328000084088420BD1FFE7624908680322130512
:103290009843049A92681A4080180860FFE7FFE795
:1032A000049882680320000402405B4908681043C8
:1032B0000860FFE7FFE7049800788006002821D522
:1032C000FFE7FFE7FFE7049840680321090408408F
:1032D00088420BD1FFE74F49086803221305984342
:1032E000049A52681A4080180860FFE7FFE70498C4
:1032F0004268032000040240474908681043086000
:10330000FFE7FFE701A80078012807D1FFE73F4961
:1033100008680122120790430860FFE7FFE704985E
:103320000078C007002809D0FFE73C49086803225D
:103330009043049AD26810430860FFE7049800782D
:103340008007002809D5FFE7344908680C2290431C
:10335000049A126910430860FFE704980078400758
:1033600000280AD5FFE72D490868032292029043FE
:10337000049A526910430860FFE704980078000738
:1033800000280AD5FFE72549086803221203904365
:10339000049A926910430860FFE704984078C007D8
:1033A00000280AD0FFE71D49086803221204904351
:1033B000049AD26910430860FFE704980078400639
:1033C00000280AD5FFE715490868012292069043B4
:1033D000049A526A10430860FFE7049800780006D8
:1033E00000280AD5FFE70D4908680322920490439C
:1033F000049A126A10430860FFE705A900200870CC
:10340000FFE705A8007806B080BDC046381002402E
:103410000070004000100240501002404C1002406A
:103420008913000080B586B00490039104980028A9
:1034300004D1FFE705A90120087062E10398B349B0
:10344000096801221140884221D9FFE7AF49086885
:1034500001229043039A10430860FFF79FFD0290FA
:10346000FFE7AA48006801210840039988420DD06F
:10347000FFE7FFF793FD0299401AA549884204D35C
:10348000FFE705A9032008703BE1EAE7FFE704989E
:1034900000788007002809D5FFE7F3490868F02283
:1034A0009043049A926810430860FFE704980078FC
:1034B000C007002800D1BCE00498406802280ED163
:1034C000FFE7EB480068012149040840400C002850
:1034D00004D1FFE705A90120087012E134E0049847
:1034E000406803280ED1FFE7E14800680121490642
:1034F0000840400E002804D1FFE705A9012008700C
:10350000FFE020E00498406801280DD1FFE7D8488B
:103510000068042108408008002804D1FFE705A9BD
:1035200001200870EDE00DE0D1480068012149025A
:103530000840400A002804D1FFE705A901200870CF
:10354000DFE0FFE7FFE7FFE7C74908680322904392
:10355000049A526810430860FFF720FD0290049817
:103560004068022816D1FFE7FFE7BF4800680C213A
:10357000084008280DD0FFE7FFF710FD0299401A18
:103580006349884204D3FFE705A903200870B8E027
:10359000EBE74DE004984068032816D1FFE7FFE70A
:1035A000B14800680C2108400C280DD0FFE7FFF758
:1035B000F5FC0299401A5649884204D3FFE705A951
:1035C000032008709DE0EBE731E004984068012893
:1035D00016D1FFE7FFE7A44800680C210840042843
:1035E0000DD0FFE7FFF7DAFC0299401A48498842FC
:1035F00004D3FFE705A90320087082E0EBE715E09C
:10360000FFE7994800680007800F00280DD0FFE70A
:10361000FFF7C4FC0299401A3D49884204D3FFE7F2
:1036200005A9032008706CE0EBE7FFE7FFE7FFE781
:10363000FFE703983549096801221140884221D2E9
:10364000FFE73249086801229043039A104308605B
:10365000FFF7A4FC0290FFE72C4800680121084016
:10366000039988420DD0FFE7FFF798FC0299401AB2
:103670002749884204D3FFE705A90320087040E0EA
:10368000EAE7FFE704980078400700280AD5FFE73B
:1036900075490868072212029043049AD2681043C1
:1036A0000860FFE704980078000700280BD5FFE7C3
:1036B0006D4908680722D2029043049A1269D20029
:1036C00010430860FFE700F04DF867490968C9B288
:1036D0000A091049895CC840124908600E48006810
:1036E000FFF78AFC014601A801700078002804D089
:1036F000FFE7019805A9087003E005A900200870FC
:10370000FFE705A8007806B080BDC0460020024053
:1037100089130000B05F000808000020014800681D
:103720007047C0460000002080B5FFF7F7FF4E4904
:1037300009680722120211400A0A0949895CC84037
:1037400080BDC04680B5FFF7E9FF474909680722F9
:10375000D2021140CA0A0249895CC84080BDC046F5
:10376000C05F000880B588B03F48006807900798A0
:103770000C21084001900C2866D80198810001A016
:10378000405887464738000849380008493800083B
:1037900049380008B9370008493800084938000896
:1037A00049380008D337000849380008493800086C
:1037B00049380008D93700082D480068C00600289D
:1037C00003D5FFE72C48029002E02A480290FFE769
:1037D00046E02A48029043E007980F2189040840F8
:1037E000810C2248405C0690079803218905084017
:1037F000800D401C05901C480068C003002808D5B7
:10380000FFE706991D4848430599FCF71BFE049005
:1038100016E017480068C006002808D5FFE706999B
:10382000154848430599FCF70DFE049007E00699FA
:10383000104848430599FCF705FE0490FFE7FFE7B1
:10384000049802900CE0FFE70D48006880B2400B3E
:1038500003900398411C01208840C0030290FFE7B9
:10386000029808B080BDC0460C100240C85F000836
:10387000001002400024F40000093D0000127A000C
:103880000410024010B58AB008900898002805D1AD
:10389000FFE709A90120087000F015FCFD48016848
:1038A0000C22114004910068012109040840039092
:1038B00008980078C007002800D18DE004980828F7
:1038C0000AD0FFE704980C2819D1FFE703980121DB
:1038D0000904884213D1FFE7EF4800680121490439
:1038E0000840400C002809D0FFE7089840680028ED
:1038F00004D1FFE709A901200870E4E36BE0FFE7CA
:103900000898406801210904884207D1FFE7E2498D
:103910000868012212041043086021E008984068FA
:103920000521090488420BD1FFE7DB490868012221
:1039300093041843086008681204104308600EE0FE
:10394000D5490868012213049843086008681840A4
:10395000029002980868920490430860FFE7FFE72E
:10396000FFE70898406800281AD0FFE7FFF716FB2A
:103970000790FFE7C8480068012149040840400C4F
:1039800000280CD1FFE7FFF709FB0799401A6528CB
:1039900004D3FFE709A90320087094E3EAE719E0DC
:1039A000FFF7FCFA0790FFE7BB48006801214904D4
:1039B0000840400C00280CD0FFE7FFF7EFFA07990A
:1039C000401A652804D3FFE709A9032008707AE3A9
:1039D000EAE7FFE7FFE7FFE708980078800700289D
:1039E00000D4A8E00898C068069006A80078800671
:1039F000002809D5FFE7A84A106820210843106075
:103A0000069888430690FFE70498042808D0FFE74B
:103A100004980C2841D1FFE7039800283DD1FFE727
:103A20009D480068042108408008002808D0FFE76E
:103A30000698002804D1FFE709A90120087042E395
:103A4000964908681F2212029043089A12691202CE
:103A5000104308609049086809229043069A104371
:103A60000860FFE7FFF77EFE8A490968C9B20A09C4
:103A70008B49895CC8408B4908608B480068FFF718
:103A8000BBFA014605A801700078002804D0FFE7C2
:103A9000059809A9087016E34CE0069800282AD07A
:103AA000FFE77D49086809229043069A10430860A1
:103AB000FFF774FA0790FFE7774800680421084091
:103AC000800800280CD1FFE7FFF768FA0799401A31
:103AD000032804D3FFE709A903200870F3E2EBE70A
:103AE0006E4908681F2212029043089A1269120256
:103AF000104308601DE0684908680122904308608F
:103B0000FFF74CFA0790FFE763480068042108407C
:103B1000800800280CD0FFE7FFF740FA0799401A09
:103B2000032804D3FFE709A903200870CBE2EBE7E1
:103B3000FFE7FFE7FFE708980078C006002800D4F9
:103B4000A1E00498002845D1FFE75348006801210F
:103B500049020840400A002809D0FFE70898C069D8
:103B6000002804D1FFE709A901200870ABE24B4906
:103B70000868072252039043089A526A104308606B
:103B80000868FF2212069043089A126A12068018EB
:103B900008600898406A400B411C01208840C0031F
:103BA0003C490968C9B20A093D49895CC8403D4998
:103BB00008603D480068FFF71FFA014605A801703C
:103BC0000078002804D0FFE7059809A908707AE278
:103BD000FFE757E00898C069002832D0FFE72E4978
:103BE00008680122120210430860FFF7D7F9079016
:103BF000FFE729480068012149020840400A0028DF
:103C00000CD1FFE7FFF7CAF90799401A032804D33C
:103C1000FFE709A90320087055E2EAE71F49086891
:103C2000072252039043089A526A104308600868BA
:103C3000FF2212069043089A126A12068018086042
:103C40001FE0154908680122120290430860FFF73F
:103C5000A5F90790FFE710480068012149020840D4
:103C6000400A00280CD0FFE7FFF798F90799401A9F
:103C7000032804D3FFE709A90320087023E2EAE739
:103C8000FFE7FFE7FFE708980078000700284FD517
:103C90000CE0C0460C10024000100240041002402C
:103CA000B05F00080000002008000020089840696C
:103CB00000281ED0FFE7FD49086801221043086074
:103CC000FFF76CF90790FFE7F84800680221084009
:103CD000400800280CD1FFE7FFF760F90799401A68
:103CE000032804D3FFE709A903200870EBE1EBE701
:103CF0001DE0F9490868012290430860FFF74EF97A
:103D00000790FFE7F44800680221084040080028B7
:103D10000CD0FFE7FFF742F90799401A032804D3B4
:103D2000FFE709A903200870CDE1EBE7FFE7FFE714
:103D3000089800784007002800D4BBE001A90020C3
:103D40000870E6480068C000002809D4FFE7E34A8D
:103D50001168012003071943116001A90870FFE7EA
:103D6000DF480068C00500281DD4FFE7DC4908686B
:103D70000122120210430860FFF710F90790FFE7D5
:103D8000D7480068C00500280CD4FFE7FFF706F904
:103D90000799401A652804D3FFE709A90320087092
:103DA00091E1EDE7FFE7FFE708988068012109024C
:103DB000884207D1FFE7C849086801221202104370
:103DC00008602EE00898806800280BD1FFE7C24900
:103DD0000868012213029843086008689202904321
:103DE00008601DE0089880680521090288420BD10F
:103DF000FFE7B94908680122930218430860086880
:103E00001202104308600AE0B34908680122130255
:103E1000984308600868920290430860FFE7FFE754
:103E2000FFE7FFE70898806800281BD0FFE7FFF74F
:103E3000B5F80790FFE7A84800680121490208404B
:103E4000400A00280DD1FFE7FFF7A8F80799401AAC
:103E5000A449884204D3FFE709A90320087032E18E
:103E6000E9E71AE0FFF79AF80790FFE79A48006839
:103E7000012149020840400A00280DD0FFE7FFF762
:103E80008DF80799401A9749884204D3FFE709A99A
:103E90000320087017E1E9E7FFE701A8007801288F
:103EA00007D1FFE7F3490868012212079043086031
:103EB000FFE7FFE7089800788006002854D5FFE761
:103EC00008988069002829D0FFE7FFE7864908683D
:103ED000012210430860864908681043086083493E
:103EE0000868520310430860FFE7FFF757F8079090
:103EF000FFE77D48006802210840400800280CD1F7
:103F0000FFE7FFF74BF80799401A032804D3FFE7B0
:103F100009A903200870D6E0EBE724E0FFE7724927
:103F20000868012290430860704908685203904372
:103F30000860FFE7FFF732F80790FFE76A4800687C
:103F400002210840400800280CD0FFE7FFF726F8C0
:103F50000799401A032804D3FFE709A90320087032
:103F6000B1E0EBE7FFE7FFE70898806A002800D19F
:103F7000A5E004980C2872D0FFE70898806A022810
:103F80004CD1FFE7534908680122120690430860AC
:103F9000FFF704F80790FFE74E4800680121490643
:103FA0000840400E00280CD0FFE7FEF7F7FF079906
:103FB000401A032804D3FFE709A90320087082E010
:103FC000EAE743490868FD2212049043089BDA6A35
:103FD0001C6B22435B6B1A43104308603D49086821
:103FE0000122120610430860FEF7D8FF0790FFE792
:103FF00038480068012149060840400E00280CD1CD
:10400000FFE7FEF7CBFF0799401A032804D3FFE729
:1040100009A90320087056E0EAE71FE02D49086867
:104020000122120690430860FEF7B8FF0790FFE7F1
:1040300028480068012149060840400E00280CD09D
:10404000FFE7FEF7ABFF0799401A032804D3FFE709
:1040500009A90320087036E0EAE7FFE72EE0089898
:10406000806A012804D1FFE709A9012008702AE02D
:104070001748006803900398012109040840089933
:10408000C96A884214D1FFE703980F2189040840C8
:104090000899096B88420BD1FFE703980321890532
:1040A00008400899496B884206D001E05010024050
:1040B00009A90120087006E0FFE7FFE7FFE709A96B
:1040C00000200870FFE709A800780AB010BDC046BC
:1040D0000C10024000100240501002403810024004
:1040E00000700040891300000810024020000140C9
:1040F0003410024080B582B00190019800F0D2FCEB
:1041000002B080BD85B003900291FFE7039838218B
:10411000405C012804D1FFE704A90220087053E0A5
:104120000399382201208854FFE7FFE703993922D9
:104130000220885403980068406801900398006842
:10414000806800900198702188430190029801686E
:104150000198084301900198039909684860039801
:10416000006801218907884212D0FFE703980068A0
:10417000664988420CD0FFE703980068644988428A
:1041800006D0FFE703980068624988420ED1FFE736
:104190000098802188430090029841680098084365
:1041A00000900098039909688860FFE70399392215
:1041B00001208854FFE70399382200208854FFE744
:1041C00004A900200870FFE704A8007805B0704734
:1041D00080B582B000900098002804D1FFE701A9C3
:1041E0000120087030E000983921405C002808D197
:1041F000FFE70099382200208854009800F028F842
:10420000FFE70099392202208854009901C900F083
:10421000C9FC00993E2201208854FFE700993A2208
:104220000120885400993B22885400993C228854EC
:1042300000993D228854FFE70099392201208854D3
:1042400001A900200870FFE701A8007802B080BD36
:1042500081B00090009800680549884206D1FFE7C8
:1042600073490868102210430860FFE701B07047E7
:10427000001000403810024083B0019001983921AD
:10428000405C012804D0FFE702A90120087039E052
:104290000199392202208854019800680121890778
:1042A000884212D0FFE701980068184988420CD074
:1042B000FFE7019800681649884206D0FFE7019899
:1042C00000681449884212D1FFE7019800688068AD
:1042D0000721084000900098062807D0FFE70198C2
:1042E00001680868012210430860FFE706E00198B2
:1042F00001680868012210430860FFE702A9002056
:104300000870FFE702A8007803B07047000400407F
:10431000000801400014014080B582B00090009870
:10432000002804D1FFE701A90120087048E00098A7
:104330008069002801D0FFE700E0FFE70098C06F28
:10434000002808D1FFE700997822002088540098BF
:1043500000F03AF8FFE700992420C8670098016848
:1043600008680122904308600098406A002804D041
:10437000FFE7009800F07EFCFFE7009800F02EFEBB
:10438000012804D1FFE701A90120087018E0009876
:10439000016848680922D202904348600098016889
:1043A00088682A2290438860009801680868012282
:1043B00010430860009800F00BFD01A90870FFE7AA
:1043C00001A8007802B080BD80B588B007900020B9
:1043D0000690059004900390029007980068134996
:1043E000884221D1FFE71249086801225204104394
:1043F0000860FFE70F48026801210A430260006875
:10440000084001900198FFE70C20029002200390E1
:10441000002004900320059004200690052000074A
:1044200002A9FEF71DFCFFE708B080BD0044004074
:10443000381002402C10024010B58AB00890079145
:1044400006A8028005930898C06F202800D09BE042
:104450000798002805D0FFE706A80088002804D1A7
:10446000FFE709A90120087092E0089880680121FF
:104470000903884210D1FFE70898006900280BD192
:10448000FFE707A80078C007002804D0FFE709A9C4
:10449000012008707CE0FFE7089984220020885002
:1044A00008992120C867FEF779FD029006980899BF
:1044B000502288520698089952228852089880689B
:1044C0000121090388420AD1FFE708980069002802
:1044D00005D1FFE7002004900798039004E00798B7
:1044E000049000200390FFE7FFE708985221405A0C
:1044F000002830D0FFE70898029B059900918021A1
:10450000002200F0EDFF002807D0FFE708992020E7
:10451000C86709A9032008703AE0049800280BD165
:10452000FFE7039800881C490840089909688862D9
:104530000398801C039008E00498007808990968A3
:1045400088620498401C0490FFE708995222885A18
:10455000401E8852C9E70898029B059900914021A6
:10456000002200F0BDFF002807D0FFE708992020B7
:10457000C86709A9032008700AE008992020C867C5
:1045800009A90020087003E009A902200870FFE7CC
:1045900009A800780AB010BDFF010000FFE7FEE7A0
:1045A00080B582B014200190FEF73AFB332000F072
:1045B0001BF80198FEF734FB322000F015F8019843
:1045C000FEF72EFB282000F00FF80C2000F00CF86E
:1045D000062000F009F8012000F006F80198FEF727
:1045E0001FFB02B080BD000080B58CB00BA901910B
:1045F00008700120069081037248079000220992FA
:10460000FEF7B6FC06990798099A49030891FEF748
:10461000AFFC069907980B9AD206D20FC9020291F5
:10462000FEF7A6FC07980B998906CA0F042103918F
:10463000FEF79EFC07980B994906CA0F02210491C8
:10464000FEF796FC019A069907981278D209C903D9
:104650000591FEF78DFC069A07980899FEF788FCED
:1046600005200A90FEF7DCFA07980899099AFEF7E8
:104670007FFC0A98FEF7D4FA019A0299069B0798E4
:1046800012781A40FEF774FC039907980B9A920768
:10469000D20FFEF76DFC049907980B9A5207D20FC0
:1046A000FEF766FC059907980B9A1207D20FFEF7E2
:1046B0005FFC069A07980899FEF75AFC0A98FEF7DD
:1046C000AFFA07980899099AFEF752FC0A98FEF784
:1046D000A7FA0CB080BDC04680B58CB00BA905917F
:1046E000087001220A929103C2480790FEF740FC2D
:1046F00007980A994903089100220992FEF738FCAD
:10470000059A07980A991278D209C9030291FEF70F
:104710002FFC07980B994906CA0F02210391FEF757
:1047200027FC07980B998906CA0F04210491FEF70C
:104730001FFC07980A990B9AD206D20FC90206915C
:10474000FEF716FC079808990A9AFEF711FC0A2052
:104750000190FEF765FA07980899099AFEF708FC98
:104760000198FEF75DFA029907980B9A1207D20F8B
:10477000FEF7FEFB039907980B9A5207D20FFEF73C
:10478000F7FB049907980B9A9207D20FFEF7F0FBFC
:10479000059A069907980A9B12781A40FEF7E8FBDB
:1047A000079808990A9AFEF7E3FB0A98FEF738FA89
:1047B00007980899099AFEF7DBFB0A98FEF730FA8A
:1047C0000CB080BD0004005080B582B00190FFE7BE
:1047D00001980078002807D0FFE70198411C01915B
:1047E0000078FFF779FFF3E702B080BD80B586B0AF
:1047F000024605A8027004AA117001788020C02228
:1048000001920029029001D001980290029803A918
:104810000870039804994018C0B2FFF7E5FE06B08F
:1048200080BD000010B584B0002100910391029179
:1048300037480190374A0260C163021D01239C077B
:1048400044608160072484630361C16011775177FC
:104850008162FF22C23242622C22815404224261D0
:10486000016381614163C161FDF7F0FD002803D060
:10487000FFE7FDF789FCFFE70120029000030390AA
:10488000234802A9FDF722FD002803D0FFE7FDF72A
:104890007BFCFFE7204802901D4802A9FDF716FDAA
:1048A000002803D0FFE7FDF76FFCFFE71B480290ED
:1048B000174802A9FDF70AFD002803D0FFE7FDF71E
:1048C00063FCFFE716480290114802A9FDF7FEFCC1
:1048D000002803D0FFE7FDF757FCFFE711480290DF
:1048E0000B4802A9FDF7F2FC002803D0FFE7FDF713
:1048F0004BFCFFE70C480290054802A9FDF7E6FCD7
:10490000002803D0FFE7FDF73FFCFFE704B010BD30
:104910008800002000240140020000041000001064
:1049200000010020000400280008002C80B582B09F
:10493000FFE70A48026801210A4302600068084054
:1049400001900198FFE70920009000221146FEF730
:10495000A4FB0098FEF796FB02B080BD3010024029
:1049600080B58CB000200B900A90099008900790B9
:10497000FFE71F48026804210A43026000680840FC
:1049800006900698FFE7FFE71948026801210A43ED
:1049900002600068084005900598FFE7FFE71448AB
:1049A000026802210A4302600068084004900498EB
:1049B000FFE7104801901049009100220292FEF793
:1049C000D7FA009A01980299079201220892099158
:1049D0000A9107A90391FEF743F90298039903226C
:1049E0000792089209900548FEF73AF90CB080BD8D
:1049F0002C1002400004005006E80000000800509F
:104A000080B582B0002201920092114811490160E4
:104A10007D21CB0143608260C900C160802141617A
:104A2000FFF7D6FB002803D0FFE7FDF7ADFBFFE75C
:104A3000202000900020019005486946FFF762FBA6
:104A4000002803D0FFE7FDF79FFBFFE702B080BD22
:104A50002C0100200010004080B582B00D4801906C
:104A60000D490160E1214902416000218160C1607E
:104A700001610C2242618161C16101624162FFF703
:104A80004BFC002803D0FFE7FDF77EFBFFE702B0F9
:104A900080BDC0466C01002000440040FFE7FEE7F7
:104AA0007047704780B584B002900298401E000E97
:104AB000002803D0FFE70120039011E00298401E78
:104AC0000949086000200190C043032100F0A2FDC5
:104AD000019806490860064A072111600390FFE724
:104AE000039804B080BDC04614E000E018E000E088
:104AF00010E000E080B5FEF755FA80BDB0B5A0B07B
:104B000012A802903821FBF79BFC00200190119025
:104B100010900F900E900D9003A82821FBF790FCA9
:104B2000019A02981D4C23680321C9028B4301217D
:104B3000CD025B1923600223129315911024169461
:104B40001C931D921E92C9051F91FEF79BFE002823
:104B500003D0FFE7FDF718FBFFE70F200D900320C0
:104B60000E9000210F91109111910DA8FEF75AFCA3
:104B7000002803D0FFE7FDF707FBFFE702200390C3
:104B80000020079003A8FEF797FA002803D0FFE75C
:104B9000FDF7FAFAFFE720B0B0BDC0460070004054
:104BA0007047000083B00290019102980068009065
:104BB00002980121890788420FD0FFE702982A490D
:104BC00088420AD0FFE702982849884205D0FFE7CB
:104BD0000298274988420AD1FFE70098702188434C
:104BE000009001984168009808430090FFE7029800
:104BF0000121890788420FD0FFE702981A498842AD
:104C00000AD0FFE702981949884205D0FFE70298C9
:104C1000174988420BD1FFE7009803210902884316
:104C200000900198C168009808430090FFE7009841
:104C300080218843019909690843009001988068A0
:104C40000299C8620198006802998862029908680E
:104C500004221043086002990120486100980299DB
:104C6000086003B07047C0460004004000080140DF
:104C70000014014081B0009000982421405C00079E
:104C800000280CD5FFE70098006840680121C9039F
:104C9000884300994A6B104309684860FFE7009811
:104CA0002421405CC00700280CD0FFE70098006872
:104CB000406801214904884300998A6A10430968C1
:104CC0004860FFE700982421405C800700280CD54D
:104CD000FFE70098006840680121090488430099B3
:104CE000CA6A104309684860FFE700982421405CC5
:104CF000400700280CD5FFE70098006840680121B4
:104D00008904884300990A6B104309684860FFE7EB
:104D100000982421405CC00600280CD5FFE70098CD
:104D20000068806801210903884300998A6B104359
:104D300009688860FFE700982421405C800600280D
:104D40000CD5FFE70098006880680121490388437B
:104D50000099CA6B104309688860FFE70098242116
:104D6000405C400600281DD5FFE7009800684068B9
:104D7000012109058843009A136C1843126850609A
:104D80000098006C88420CD1FFE7009800684068EA
:104D900003214905884300994A6C1043096848601B
:104DA000FFE7FFE700982421405C000600280CD5AF
:104DB000FFE70098006840680121C9048843009912
:104DC0008A6C104309684860FFE701B07047000033
:104DD00080B590B005900599842200208850FEF798
:104DE000DDF804900598006800680007002831D5B8
:104DF000FFE70598049B4C490091012149050022D9
:104E000000F06EFB002824D0FFE7FFE7EFF31080EF
:104E100009900998039001200F900F9880F3108853
:104E200005980168086880229043086003980E90F6
:104E30000E9880F31088FFE705992020C867FFE7E8
:104E40000599782200208854FFE706A903200870FE
:104E500065E0FFE70598006800684007002849D52D
:104E6000FFE70598049B3049009101218905002244
:104E700000F036FB00283CD0FFE7FFE7EFF310809F
:104E800008900898029001200D900D9880F31088EA
:104E90000598016808680922520190430860029849
:104EA0000C900C9880F31088FFE7FFE7EFF3108079
:104EB00007900798019001220B920B9880F31088BD
:104EC0000598016888689043886001980A900A985C
:104ED00080F31088FFE70599802220208850FFE7A3
:104EE0000599782200208854FFE706A9032008705E
:104EF00015E0FFE705992020C867059980228850B2
:104F000005990020086605994866FFE7059978220B
:104F100000208854FFE706A900200870FFE706A8D4
:104F2000007810B080BDC046FFFFFF018DB0039038
:104F3000FFE7EFF3108006900698029001200C9096
:104F40000C9880F3108803980168086809225201C0
:104F50009043086002980B900B9880F31088FFE74D
:104F6000FFE7EFF3108005900598019001220A9267
:104F70000A9880F3108803980168886890438860D5
:104F800001980990099880F31088FFE70398006E54
:104F9000012818D1FFE7FFE7EFF310800490049891
:104FA000009001200890089880F310880398016809
:104FB000086810229043086000980790079880F3D3
:104FC0001088FFE7FFE7039980222020885003998B
:104FD00000200866039988660DB0704710B58EB042
:104FE0000D9008A9002008700D980068D5498842E6
:104FF00001D1FFE700E0FFE70D9988680A691043D7
:105000004A691043C96908430C900D98006800680C
:10501000F74908400C9908430D99096808600D98F4
:10502000006840680321090388430D99CA6810434A
:10503000096848600D9880690C900D980068C14916
:10504000884206D0FFE70D98016A0C9808430C903F
:10505000FFE70D98006880680B21090288430C99CE
:1050600008430D9909688860FFE70D980068EE49CC
:1050700088422AD1FFE7ED480068032108400690E6
:1050800003281DD80698810001A040588746C046D5
:10509000A1500008B1500008A9500008B9500008FC
:1050A0000AA9012008700FE00AA9022008700BE08D
:1050B0000AA90420087007E00AA90820087003E084
:1050C0000AA910200870FFE793E00D980068FD49D9
:1050D00088423CD1FFE7D54800680C210840059084
:1050E0000C282FD80598810001A040588746C0465B
:1050F0002551000845510008455100084551000858
:105100003551000845510008455100084551000837
:105110002D5100084551000845510008455100082F
:105120003D5100080AA9002008700FE00AA90220DA
:1051300008700BE00AA90420087007E00AA90820FB
:10514000087003E00AA910200870FFE750E00D98EE
:105150000068DD49884204D1FFE70AA900200870F1
:1051600045E00D980068D949884204D1FFE70AA9B3
:10517000002008703AE00D980068D149884230D18B
:10518000FFE7D34800680321890208400490002803
:1051900012D0FFE7049801218902884214D0FFE76A
:1051A00004980121C90288420AD0FFE7049803212C
:1051B000890288420CD00FE00AA9002008700FE095
:1051C0000AA9022008700BE00AA90420087007E071
:1051D0000AA90820087003E00AA910200870FFE758
:1051E00003E00AA910200870FFE7FFE7FFE7FFE7E9
:1051F000FFE7FFE70D980068B149884276D1FFE7E5
:105200000AA800780390082831D80398810001A0EB
:1052100040588746395200086F5200084152000832
:105220006F5200085F5200086F5200086F5200086A
:105230006F52000867520008FEF776FA07901CE0EC
:10524000A4480068102108400009002803D0FFE7A7
:10525000A248079002E0A0480790FFE70DE0FEF7A4
:1052600081FA079009E00120C003079005E00020C3
:10527000079008A901200870FFE70798002834D09C
:10528000FFE707980D994A6803215143884207D3E5
:10529000FFE707980D9949680903884204D9FFE799
:1052A00008A9012008701FE00798010E00020D9A5E
:1052B00052685408002300195941FAF7FBFF09907E
:1052C0000998000A03280AD3FFE70998000D00286F
:1052D00005D1FFE709980D990968C86003E008A99E
:1052E00001200870FFE7FFE7FFE7E0E00D98C069E5
:1052F0000121C903884271D1FFE70AA80078029012
:10530000082838D80298810001A040588746C04636
:10531000355300083D5300084953000877530008EF
:105320006753000877530008775300087753000845
:105330006F530008FEF7F8F9079022E0FEF702FA33
:1053400007901EE0004800406248006810210840B5
:105350000009002803D0FFE76048079002E05E489C
:105360000790FFE70DE0FEF7FDF9079009E0012047
:10537000C003079005E00020079008A901200870ED
:10538000FFE70798002828D0FFE7079840000D990D
:1053900049684A088018FBF755F8099009981028C1
:1053A00016D3FFE709A84088002811D1FFE7099923
:1053B0000F2081430BA8018009990E2211404A0851
:1053C0000B991143018000880D990968C86003E0BA
:1053D00008A901200870FFE7FFE767E00AA8007846
:1053E000019008283BD80198810002A040588746C8
:1053F000F369FFEF195400082154000831540008E4
:105400005F5400084F5400085F5400085F540008C0
:105410005F54000857540008FEF786F9079024E00F
:10542000FEF790F9079020E0003801404C10024050
:1054300028480068102108400009002803D0FFE731
:105440002648079002E024480790FFE70DE0FEF7AA
:1054500089F9079009E00120C003079005E00020CA
:10546000079008A901200870FFE7079800281CD0C2
:10547000FFE707980D9949684A088018FAF7E2FF94
:105480000990099810280BD3FFE709A84088002845
:1054900006D1FFE709A800880D990968C86003E0F4
:1054A00008A901200870FFE7FFE7FFE7FFE70D9974
:1054B000002088660D99C86608A800780EB010BD57
:1054C0000048004000440040004C004000500040B4
:1054D0004C100240001002400024F40000093D007E
:1054E00010B586B0089C0490039102A80270019345
:1054F000FFE704980068C06903990840401A4142D8
:10550000484102A90978884266D1FFE70898401C03
:10551000002860D0FFE7FDF741FD0199401A089986
:10552000884204D8FFE70898002804D1FFE705A9BE
:105530000320087054E004980068006840070028C1
:1055400048D5FFE70398802844D0FFE70398402818
:1055500040D0FFE704980068C06908210840C008EF
:10556000012816D1FFE7049801680820009008621E
:105570000498FFF7DBFC0098049984228850FFE729
:105580000499782200208854FFE705A901200870BB
:1055900026E004980068C0690121C9020840C00AD9
:1055A000012816D1FFE7049801680120C0020862B3
:1055B0000498FFF7BBFC0499842220208850FFE761
:1055C0000499782200208854FFE705A90320087079
:1055D00006E0FFE7FFE78CE705A900200870FFE77A
:1055E00005A8007806B010BD81B00146684601707C
:1055F00000214056002809D4FFE7684601781F20A3
:1056000001400120884002490860FFE701B070476F
:1056100000E100E070B582B0024601A8027000917E
:1056200000214056002816D4FFE7002401A908579E
:105630000322D3431840174A805809578C07E50EB8
:10564000FF24AC40A043009CA401E4B2AC40204342
:10565000194088501AE001A908780F242040083822
:105660000322D34318400A4A8058002549578D0722
:10567000EE0EFF25B540A843009DAD01EDB2B5404B
:1056800028432140083919408850FFE702B070BD17
:105690001CED00E000E400E080B59EB000201A9010
:1056A0001D90FDF78BFCFFF729FAFFF759F9FFF77B
:1056B0003DF9FFF7A5F9FFF7B5F8FFF7CDF9FEF7CC
:1056C0006FFFD748FEF7D8FD1A99D6481B90FCF714
:1056D00062FD1B98D4490622FDF79AF8FFE7FDF713
:1056E0005DFC1C90D1480078012800D096E11C9800
:1056F000CF490968401A80084B2800D249E11C981C
:10570000CB490860C94900200870CA490860C648EA
:1057100016900088FBF74EF8C7491791FAF776FF05
:10572000C649189100F0D6FA01461698C44A11608D
:105730004088FBF73FF81799FAF768FF189900F0CF
:10574000C9FA01461698BF4A199211608088FBF782
:1057500031F81799FAF75AFF189900F0BBFA014689
:105760001698B94A1160C088FBF724F81799FAF720
:105770004DFF189900F0AEFA01461698B34A116031
:105780000089FBF717F81799FAF740FF189900F00E
:10579000A1FA01461698AE4A11604089FBF70AF853
:1057A0001799FAF733FF189900F094FA01461998FF
:1057B000A84A11600068FAF7FFFEA74AA74B00F05D
:1057C00095F900282DD1FFE79E4815900068A5495E
:1057D00000F080FA014615980160994A0021116095
:1057E0000068FAF7E9FEA04AA04B00F08AF9002809
:1057F0000AD1FFE7934801688E481490006800F0D2
:1058000023FA149908600BE08E48002101600168BA
:1058100088481390006800F017FA13990860FFE7B2
:1058200014E08849002008608548119000688C4980
:1058300000F050FA01461198016001687D4812900D
:10584000006800F001FA12990860FFE77F480068DD
:10585000FAF7B2FE804A814B00F048F900282DD1BA
:10586000FFE77A48109000687E4900F033FA01465D
:1058700010980160744A002111600068FAF79CFEDC
:10588000794A7A4B00F03DF900280AD1FFE76F48CA
:10589000016868480F90006800F0D6F90F99086019
:1058A0000BE06A4800210160016862480E900068C0
:1058B00000F0CAF90E990860FFE714E06349002080
:1058C000086061480C900068654900F003FA0146E1
:1058D0000C980160016857480D90006800F0B4F919
:1058E0000D990860FFE75A480068FAF765FE5A4AC2
:1058F0005A4B00F0FBF800282DD1FFE754480B90DD
:105900000068584900F0E6F901460B980160514AD9
:10591000002111600068FAF74FFE534A534B00F024
:10592000F0F800280AD1FFE74948016841480A9089
:10593000006800F089F90A9908600BE044480021EA
:10594000016001683B480990006800F07DF9099901
:105950000860FFE714E03E49002008603D480790DA
:1059600000683F4900F0B6F90146079801600168F8
:1059700030480890006800F067F908990860FFE770
:105980002C48069000683A49FAF740FE06990860EC
:10599000FFE71C9837490968401AC0087D2818D3CA
:1059A000FFE71C983349086022480068FAF704FEB4
:1059B0000191009030480490304A14210591FAF783
:1059C00001FD0499059A2E480023DB43FEF734FDC0
:1059D000FFE71C982B490968401A00097D2817D356
:1059E000FFE71C982749086012480068FAF7E4FDB1
:1059F0000191009024480390244A1421FAF7E2FC14
:105A000000210846FEF7F2FE0398FEF7DDFEFFE7F1
:105A1000044805490622FCF7FBFEFFE75FE6C046A7
:105A20002C0100208800002072000020700000205F
:105A3000840000208000002000F07F453333534075
:105A4000280200202C020020300200203402002016
:105A5000380200203C0200201F85EB51B81EED3FAC
:105A6000F085D140000030419A9999999999B93FB0
:105A700000004040200200200C020020D15F0008FE
:105A80006C01002008020020F4010020E35F000800
:105A9000F8B5040C8BB2264682B25E4310465843DA
:105AA0000D0C370C360400218019164679416E43DF
:105AB000370C36048019264679416E438919F8BDA2
:105AC0004900CA020243100000D004204A0D01D050
:105AD00001221043044A490D914201D10221084399
